{
  "_format": "hh-sol-artifact-1",
  "contractName": "TwoThirdsGame",
  "sourceName": "contracts/TwoThirdsGame.sol",
  "abi": [
    {
      "inputs": [
        {
          "internalType": "address",
          "name": "_admin",
          "type": "address"
        },
        {
          "internalType": "uint8",
          "name": "_minPlayers",
          "type": "uint8"
        },
        {
          "internalType": "uint256",
          "name": "_entryFee",
          "type": "uint256"
        },
        {
          "internalType": "uint8",
          "name": "_serviceFeePercent",
          "type": "uint8"
        },
        {
          "internalType": "uint256",
          "name": "_registrationPeriod",
          "type": "uint256"
        },
        {
          "internalType": "uint256",
          "name": "_submissionPeriod",
          "type": "uint256"
        }
      ],
      "stateMutability": "nonpayable",
      "type": "constructor"
    },
    {
      "inputs": [],
      "name": "ReentrancyGuardReentrantCall",
      "type": "error"
    },
    {
      "anonymous": false,
      "inputs": [],
      "name": "GameCancelled",
      "type": "event"
    },
    {
      "anonymous": false,
      "inputs": [
        {
          "indexed": true,
          "internalType": "address",
          "name": "winner",
          "type": "address"
        },
        {
          "indexed": false,
          "internalType": "uint256",
          "name": "winningNumber",
          "type": "uint256"
        },
        {
          "indexed": false,
          "internalType": "uint256",
          "name": "prize",
          "type": "uint256"
        }
      ],
      "name": "GameCompleted",
      "type": "event"
    },
    {
      "anonymous": false,
      "inputs": [
        {
          "indexed": true,
          "internalType": "address",
          "name": "player",
          "type": "address"
        },
        {
          "indexed": false,
          "internalType": "bytes32",
          "name": "commitment",
          "type": "bytes32"
        }
      ],
      "name": "NumberCommitted",
      "type": "event"
    },
    {
      "anonymous": false,
      "inputs": [
        {
          "indexed": true,
          "internalType": "address",
          "name": "player",
          "type": "address"
        },
        {
          "indexed": false,
          "internalType": "uint256",
          "name": "number",
          "type": "uint256"
        }
      ],
      "name": "NumberRevealed",
      "type": "event"
    },
    {
      "anonymous": false,
      "inputs": [
        {
          "indexed": true,
          "internalType": "address",
          "name": "player",
          "type": "address"
        },
        {
          "indexed": true,
          "internalType": "uint256",
          "name": "playerId",
          "type": "uint256"
        }
      ],
      "name": "PlayerRegistered",
      "type": "event"
    },
    {
      "inputs": [],
      "name": "advanceToSubmission",
      "outputs": [],
      "stateMutability": "nonpayable",
      "type": "function"
    },
    {
      "inputs": [],
      "name": "cancelGame",
      "outputs": [],
      "stateMutability": "nonpayable",
      "type": "function"
    },
    {
      "inputs": [
        {
          "internalType": "bytes32",
          "name": "commitment",
          "type": "bytes32"
        }
      ],
      "name": "commitNumber",
      "outputs": [],
      "stateMutability": "nonpayable",
      "type": "function"
    },
    {
      "inputs": [],
      "name": "currentPhase",
      "outputs": [
        {
          "internalType": "enum TwoThirdsGame.GamePhase",
          "name": "",
          "type": "uint8"
        }
      ],
      "stateMutability": "view",
      "type": "function"
    },
    {
      "inputs": [],
      "name": "entryFee",
      "outputs": [
        {
          "internalType": "uint256",
          "name": "",
          "type": "uint256"
        }
      ],
      "stateMutability": "view",
      "type": "function"
    },
    {
      "inputs": [],
      "name": "finishGame",
      "outputs": [],
      "stateMutability": "nonpayable",
      "type": "function"
    },
    {
      "inputs": [],
      "name": "gameAdmin",
      "outputs": [
        {
          "internalType": "address",
          "name": "",
          "type": "address"
        }
      ],
      "stateMutability": "view",
      "type": "function"
    },
    {
      "inputs": [],
      "name": "getPlayerCount",
      "outputs": [
        {
          "internalType": "uint256",
          "name": "",
          "type": "uint256"
        }
      ],
      "stateMutability": "view",
      "type": "function"
    },
    {
      "inputs": [],
      "name": "getTargetNumber",
      "outputs": [
        {
          "internalType": "uint256",
          "name": "",
          "type": "uint256"
        }
      ],
      "stateMutability": "view",
      "type": "function"
    },
    {
      "inputs": [
        {
          "internalType": "address",
          "name": "player",
          "type": "address"
        }
      ],
      "name": "hasPlayerSubmitted",
      "outputs": [
        {
          "internalType": "bool",
          "name": "",
          "type": "bool"
        }
      ],
      "stateMutability": "view",
      "type": "function"
    },
    {
      "inputs": [],
      "name": "minPlayers",
      "outputs": [
        {
          "internalType": "uint8",
          "name": "",
          "type": "uint8"
        }
      ],
      "stateMutability": "view",
      "type": "function"
    },
    {
      "inputs": [
        {
          "internalType": "address",
          "name": "",
          "type": "address"
        }
      ],
      "name": "playerIds",
      "outputs": [
        {
          "internalType": "uint256",
          "name": "",
          "type": "uint256"
        }
      ],
      "stateMutability": "view",
      "type": "function"
    },
    {
      "inputs": [
        {
          "internalType": "uint256",
          "name": "",
          "type": "uint256"
        }
      ],
      "name": "players",
      "outputs": [
        {
          "internalType": "address",
          "name": "playerAddress",
          "type": "address"
        },
        {
          "internalType": "bool",
          "name": "hasSubmitted",
          "type": "bool"
        },
        {
          "internalType": "bool",
          "name": "hasPaid",
          "type": "bool"
        }
      ],
      "stateMutability": "view",
      "type": "function"
    },
    {
      "inputs": [],
      "name": "register",
      "outputs": [],
      "stateMutability": "payable",
      "type": "function"
    },
    {
      "inputs": [],
      "name": "registrationDeadline",
      "outputs": [
        {
          "internalType": "uint256",
          "name": "",
          "type": "uint256"
        }
      ],
      "stateMutability": "view",
      "type": "function"
    },
    {
      "inputs": [
        {
          "internalType": "uint256",
          "name": "number",
          "type": "uint256"
        },
        {
          "internalType": "string",
          "name": "secret",
          "type": "string"
        }
      ],
      "name": "revealNumber",
      "outputs": [],
      "stateMutability": "nonpayable",
      "type": "function"
    },
    {
      "inputs": [],
      "name": "serviceFeePercent",
      "outputs": [
        {
          "internalType": "uint8",
          "name": "",
          "type": "uint8"
        }
      ],
      "stateMutability": "view",
      "type": "function"
    },
    {
      "inputs": [],
      "name": "submissionDeadline",
      "outputs": [
        {
          "internalType": "uint256",
          "name": "",
          "type": "uint256"
        }
      ],
      "stateMutability": "view",
      "type": "function"
    },
    {
      "inputs": [],
      "name": "totalPrizePool",
      "outputs": [
        {
          "internalType": "uint256",
          "name": "",
          "type": "uint256"
        }
      ],
      "stateMutability": "view",
      "type": "function"
    },
    {
      "inputs": [],
      "name": "winner",
      "outputs": [
        {
          "internalType": "address",
          "name": "",
          "type": "address"
        }
      ],
      "stateMutability": "view",
      "type": "function"
    },
    {
      "inputs": [],
      "name": "winningNumber",
      "outputs": [
        {
          "internalType": "uint256",
          "name": "",
          "type": "uint256"
        }
      ],
      "stateMutability": "view",
      "type": "function"
    },
    {
      "inputs": [],
      "name": "withdrawEntryFee",
      "outputs": [],
      "stateMutability": "nonpayable",
      "type": "function"
    }
  ],
  "bytecode": "0x60806040523480156200001157600080fd5b5060405162001bde38038062001bde83398101604081905262000034916200017d565b6001600055600360ff86161015620000935760405162461bcd60e51b815260206004820152601a60248201527f4d696e696d756d203320706c617965727320726571756972656400000000000060448201526064015b60405180910390fd5b60148360ff161115620000e95760405162461bcd60e51b815260206004820152601460248201527f536572766963652066656520746f6f206869676800000000000000000000000060448201526064016200008a565b6001805460ff808816600160a01b026001600160a81b03199092166001600160a01b038a16179190911790915560028590556003805491851660ff199092169190911790556200013a8242620001f0565b60048190556200014c908290620001f0565b60055550506006805460ff19169055506200021892505050565b805160ff811681146200017857600080fd5b919050565b60008060008060008060c087890312156200019757600080fd5b86516001600160a01b0381168114620001af57600080fd5b9550620001bf6020880162000166565b945060408701519350620001d66060880162000166565b92506080870151915060a087015190509295509295509295565b808201808211156200021257634e487b7160e01b600052601160045260246000fd5b92915050565b6119b680620002286000396000f3fe6080604052600436106101355760003560e01c80638755d214116100ab578063d36ec0611161006f578063d36ec06114610318578063d84c1ac914610345578063dfbf53ae1461035a578063e1841c701461037a578063f71d96cb1461039a578063f9c551151461040d57600080fd5b80638755d2141461028f578063995bc51e146102bf5780639fecb69f146102d9578063b22e1d77146102ee578063c2e522061461030357600080fd5b80631f31eb1a116100fd5780631f31eb1a146101c35780632770c895146101d85780633987644c1461020b578063398ab9a71461022b5780634664611e1461024157806376adcba51461025757600080fd5b8063055ad42e1461013a578063072ea61c1461016a578063111843921461018e57806312bb3730146101a45780631aa3a008146101bb575b600080fd5b34801561014657600080fd5b506006546101549060ff1681565b6040516101619190611770565b60405180910390f35b34801561017657600080fd5b5061018060025481565b604051908152602001610161565b34801561019a57600080fd5b5061018060045481565b3480156101b057600080fd5b506101b9610423565b005b6101b9610566565b3480156101cf57600080fd5b506101b9610822565b3480156101e457600080fd5b506001546101f990600160a01b900460ff1681565b60405160ff9091168152602001610161565b34801561021757600080fd5b506101b9610226366004611798565b610941565b34801561023757600080fd5b5061018060085481565b34801561024d57600080fd5b50610180600a5481565b34801561026357600080fd5b50600154610277906001600160a01b031681565b6040516001600160a01b039091168152602001610161565b34801561029b57600080fd5b506102af6102aa3660046117b1565b610b10565b6040519015158152602001610161565b3480156102cb57600080fd5b506003546101f99060ff1681565b3480156102e557600080fd5b506101b9610b58565b3480156102fa57600080fd5b50610180610cae565b34801561030f57600080fd5b50600754610180565b34801561032457600080fd5b506101806103333660046117b1565b600e6020526000908152604090205481565b34801561035157600080fd5b506101b9610d12565b34801561036657600080fd5b50600954610277906001600160a01b031681565b34801561038657600080fd5b506101b96103953660046117e1565b610eae565b3480156103a657600080fd5b506103e66103b5366004611798565b600d602052600090815260409020546001600160a01b0381169060ff600160a01b8204811691600160a81b90041683565b604080516001600160a01b0390941684529115156020840152151590820152606001610161565b34801561041957600080fd5b5061018060055481565b61042b61121d565b600460065460ff1660048111156104445761044461175a565b1461048b5760405162461bcd60e51b815260206004820152601260248201527111d85b59481b9bdd0818d85b98d95b1b195960721b60448201526064015b60405180910390fd5b336000908152600e6020526040902054806104b85760405162461bcd60e51b81526004016104829061185d565b6000818152600d6020526040902054600160a81b900460ff166105115760405162461bcd60e51b815260206004820152601160248201527020b63932b0b23c903bb4ba34323930bbb760791b6044820152606401610482565b6000818152600d6020526040808220805460ff60a81b191690556002549051339282156108fc02929190818181858888f19350505050158015610558573d6000803e3d6000fd5b50506105646001600055565b565b61056e61121d565b600060065460ff1660048111156105875761058761175a565b146105d45760405162461bcd60e51b815260206004820152601860248201527f526567697374726174696f6e206973206e6f74206f70656e00000000000000006044820152606401610482565b60045442106106255760405162461bcd60e51b815260206004820152601960248201527f526567697374726174696f6e20706572696f6420656e646564000000000000006044820152606401610482565b336000908152600e6020526040902054156106775760405162461bcd60e51b8152602060048201526012602482015271105b1c9958591e481c9959da5cdd195c995960721b6044820152606401610482565b6002543410156106c25760405162461bcd60e51b8152602060048201526016602482015275496e73756666696369656e7420656e7472792066656560501b6044820152606401610482565b6000600254346106d2919061189b565b9050801561070957604051339082156108fc029083906000818181858888f19350505050158015610707573d6000803e3d6000fd5b505b60078054906000610719836118b4565b90915550506007546040805160608101825233808252600060208084018281526001858701908152878452600d835286842095518654925191511515600160a81b0260ff60a81b19921515600160a01b026001600160a81b03199094166001600160a01b039290921691909117929092171617909355908152600e90915290812082905560025460088054919290916107b39084906118cd565b9091555050604051819033907f324cb0062138d65997c86cd3012489ceb351d602f2f55c7408306e8040c79f3f90600090a3600154600754600160a01b90910460ff161180159061080657506004544210155b156105585750506006805460ff19166001908117909155600055565b600060065460ff16600481111561083b5761083b61175a565b146108845760405162461bcd60e51b81526020600482015260196024820152784e6f7420696e20726567697374726174696f6e20706861736560381b6044820152606401610482565b600154600754600160a01b90910460ff1611156108d85760405162461bcd60e51b81526020600482015260126024820152714e6f7420656e6f75676820706c617965727360701b6044820152606401610482565b6001546001600160a01b031633146109325760405162461bcd60e51b815260206004820152601d60248201527f4f6e6c792061646d696e2063616e20616476616e6365207068617365730000006044820152606401610482565b6006805460ff19166001179055565b600160065460ff16600481111561095a5761095a61175a565b146109a05760405162461bcd60e51b815260206004820152601660248201527529bab136b4b9b9b4b7b71034b9903737ba1037b832b760511b6044820152606401610482565b60055442106109f15760405162461bcd60e51b815260206004820152601760248201527f5375626d697373696f6e20706572696f6420656e6465640000000000000000006044820152606401610482565b336000908152600e602052604090205480610a1e5760405162461bcd60e51b81526004016104829061185d565b6000818152600d6020526040902054600160a01b900460ff1615610a785760405162461bcd60e51b8152602060048201526011602482015270105b1c9958591e481cdd589b5a5d1d1959607a1b6044820152606401610482565b6040805160608101825283815260006020808301828152838501838152868452600f83528584209451855590516001850155516002909301805460ff191693151593909317909255600d82528290208054600160a01b60ff60a01b19909116179055905183815233917fa00eb044927680476f6db5f507265b04bc545c94532856d48002e6c6760cf408910160405180910390a25050565b6001600160a01b0381166000908152600e6020526040812054808203610b395750600092915050565b6000908152600d6020526040902054600160a01b900460ff1692915050565b600260065460ff166004811115610b7157610b7161175a565b14610bb45760405162461bcd60e51b81526020600482015260136024820152724e6f7420696e2072657665616c20706861736560681b6044820152606401610482565b600554610bc490620151806118cd565b4211610c095760405162461bcd60e51b81526020600482015260146024820152735761697420666f7220616c6c2072657665616c7360601b6044820152606401610482565b600060015b6007548111610c51576000818152600f602052604090206002015460ff1615610c3f5781610c3b816118b4565b9250505b80610c49816118b4565b915050610c0e565b50600154600160a01b900460ff16811015610ca35760405162461bcd60e51b81526020600482015260126024820152714e6f7420656e6f7567682072657665616c7360701b6044820152606401610482565b610cab611247565b50565b6000600360065460ff166004811115610cc957610cc961175a565b14610d0b5760405162461bcd60e51b815260206004820152601260248201527111d85b59481b9bdd0818dbdb5c1b195d195960721b6044820152606401610482565b50600c5490565b6001546001600160a01b03163314610d645760405162461bcd60e51b815260206004820152601560248201527413db9b1e4818591b5a5b8818d85b8818d85b98d95b605a1b6044820152606401610482565b600060065460ff166004811115610d7d57610d7d61175a565b14610dc65760405162461bcd60e51b81526020600482015260196024820152784e6f7420696e20726567697374726174696f6e20706861736560381b6044820152606401610482565b600454421015610e185760405162461bcd60e51b815260206004820152601d60248201527f526567697374726174696f6e20706572696f64206e6f7420656e6465640000006044820152606401610482565b600154600754600160a01b90910460ff1611610e765760405162461bcd60e51b815260206004820152601960248201527f456e6f75676820706c61796572732072656769737465726564000000000000006044820152606401610482565b6006805460ff191660041790556040517f1dc43dc4f1689be1269b3e80407b3401b4cb752c02591cac32e47dfd758af27d90600090a1565b600160065460ff166004811115610ec757610ec761175a565b1480610ee95750600260065460ff166004811115610ee757610ee761175a565b145b610f3f5760405162461bcd60e51b815260206004820152602160248201527f4e6f7420696e207375626d697373696f6e206f722072657665616c20706861736044820152606560f81b6064820152608401610482565b6005544210158015610f675750600160065460ff166004811115610f6557610f6561175a565b145b15610f7a576006805460ff191660021790555b336000908152600e602052604090205480610fa75760405162461bcd60e51b81526004016104829061185d565b6000818152600d6020526040902054600160a01b900460ff166110025760405162461bcd60e51b8152602060048201526013602482015272139bc81b9d5b58995c8818dbdb5b5a5d1d1959606a1b6044820152606401610482565b6000818152600f602052604090206002015460ff16156110575760405162461bcd60e51b815260206004820152601060248201526f105b1c9958591e481c995d99585b195960821b6044820152606401610482565b6103e88411156110a15760405162461bcd60e51b815260206004820152601560248201527404e756d626572206d75737420626520302d3130303605c1b6044820152606401610482565b6000848484336040516020016110ba94939291906118e0565b60408051601f1981840301815291815281516020928301206000858152600f90935291205490915081146111305760405162461bcd60e51b815260206004820152601860248201527f496e76616c6964206e756d626572206f722073656372657400000000000000006044820152606401610482565b6000828152600f6020526040812060018082018890556002909101805460ff19169091179055600b80548792906111689084906118cd565b909155505060405185815233907f843e2c6ff2cd7224358b6b442e6d46c672362b0e129d790993001b54f161f0b99060200160405180910390a26001805b6007548111611206576000818152600d6020526040902054600160a01b900460ff1680156111e657506000818152600f602052604090206002015460ff16155b156111f45760009150611206565b806111fe816118b4565b9150506111a6565b50801561121557611215611247565b505050505050565b60026000540361124057604051633ee5aeb560e01b815260040160405180910390fd5b6002600055565b600260065460ff1660048111156112605761126061175a565b146112a35760405162461bcd60e51b81526020600482015260136024820152724e6f7420696e2072657665616c20706861736560681b6044820152606401610482565b600060015b60075481116112eb576000818152600f602052604090206002015460ff16156112d957816112d5816118b4565b9250505b806112e3816118b4565b9150506112a8565b50600154600160a01b900460ff16811015611339576006805460ff191660041790556040517f1dc43dc4f1689be1269b3e80407b3401b4cb752c02591cac32e47dfd758af27d90600090a150565b600081600b54611349919061192b565b9050600361135882600261193f565b611362919061192b565b600c556103e960015b60075481116113f8576000818152600f602052604090206002015460ff16156113e6576000818152600f6020526040812060010154600c549091908211156113c157600c546113ba908361189b565b90506113d2565b81600c546113cf919061189b565b90505b838110156113e357600a8290559250825b50505b806113f0816118b4565b91505061136b565b5060015b600754811161149e576000818152600f602052604090206002015460ff1680156114385750600a546000828152600f6020526040902060010154145b1561148c57600a546000908152601060209081526040808320848452600d83529083205481546001810183559184529190922090910180546001600160a01b0319166001600160a01b039092169190911790555b80611496816118b4565b9150506113fc565b50600a5460009081526010602090815260408083208054825181850281018501909352808352919290919083018282801561150257602002820191906000526020600020905b81546001600160a01b031681526001909101906020018083116114e4575b505050505090508051600103611558578060008151811061152557611525611956565b6020026020010151600960006101000a8154816001600160a01b0302191690836001600160a01b031602179055506115fe565b6001815111156115fe578051600090424461157460014361189b565b600c54604080516020810195909552840192909252406060830152608082015260a0016040516020818303038152906040528051906020012060001c6115ba919061196c565b90508181815181106115ce576115ce611956565b6020026020010151600960006101000a8154816001600160a01b0302191690836001600160a01b03160217905550505b61160661166d565b6006805460ff19166003179055600954600a546001600160a01b03909116907fe3b774cfd7ea28729e7829411c6dfb5be69d56f78c5ce78ad8a0a26668aeff1f9061164f61171d565b6040805192835260208301919091520160405180910390a250505050565b6003546008546000916064916116869160ff169061193f565b611690919061192b565b90506000816008546116a2919061189b565b6009546040519192506001600160a01b03169082156108fc029083906000818181858888f193505050501580156116dd573d6000803e3d6000fd5b506001546040516001600160a01b039091169083156108fc029084906000818181858888f19350505050158015611718573d6000803e3d6000fd5b505050565b600354600854600091829160649161173a9160ff9091169061193f565b611744919061192b565b905080600854611754919061189b565b91505090565b634e487b7160e01b600052602160045260246000fd5b602081016005831061179257634e487b7160e01b600052602160045260246000fd5b91905290565b6000602082840312156117aa57600080fd5b5035919050565b6000602082840312156117c357600080fd5b81356001600160a01b03811681146117da57600080fd5b9392505050565b6000806000604084860312156117f657600080fd5b83359250602084013567ffffffffffffffff8082111561181557600080fd5b818601915086601f83011261182957600080fd5b81358181111561183857600080fd5b87602082850101111561184a57600080fd5b6020830194508093505050509250925092565b6020808252600e908201526d139bdd081c9959da5cdd195c995960921b604082015260600190565b634e487b7160e01b600052601160045260246000fd5b818103818111156118ae576118ae611885565b92915050565b6000600182016118c6576118c6611885565b5060010190565b808201808211156118ae576118ae611885565b8481528284602083013760609190911b6bffffffffffffffffffffffff19166020919092019081019190915260340192915050565b634e487b7160e01b600052601260045260246000fd5b60008261193a5761193a611915565b500490565b80820281158282048414176118ae576118ae611885565b634e487b7160e01b600052603260045260246000fd5b60008261197b5761197b611915565b50069056fea26469706673582212203e431574da1adebc77258cfb704b93708d28790f578e7bdd42d65c6e137fcaac64736f6c63430008140033",
  "linkReferences": {},
  "deployedLinkReferences": {}
}