{
  "_format": "hh-sol-artifact-1",
  "contractName": "TwoThirdsGame",
  "sourceName": "contracts/TwoThirdsGame.sol",
  "abi": [
    {
      "inputs": [
        {
          "internalType": "address",
          "name": "_admin",
          "type": "address"
        },
        {
          "internalType": "uint8",
          "name": "_minPlayers",
          "type": "uint8"
        },
        {
          "internalType": "uint256",
          "name": "_entryFee",
          "type": "uint256"
        },
        {
          "internalType": "uint8",
          "name": "_serviceFeePercent",
          "type": "uint8"
        },
        {
          "internalType": "uint256",
          "name": "_registrationPeriod",
          "type": "uint256"
        },
        {
          "internalType": "uint256",
          "name": "_submissionPeriod",
          "type": "uint256"
        }
      ],
      "stateMutability": "nonpayable",
      "type": "constructor"
    },
    {
      "inputs": [],
      "name": "ReentrancyGuardReentrantCall",
      "type": "error"
    },
    {
      "anonymous": false,
      "inputs": [],
      "name": "GameCancelled",
      "type": "event"
    },
    {
      "anonymous": false,
      "inputs": [
        {
          "indexed": true,
          "internalType": "address",
          "name": "winner",
          "type": "address"
        },
        {
          "indexed": false,
          "internalType": "uint256",
          "name": "winningNumber",
          "type": "uint256"
        },
        {
          "indexed": false,
          "internalType": "uint256",
          "name": "prize",
          "type": "uint256"
        }
      ],
      "name": "GameCompleted",
      "type": "event"
    },
    {
      "anonymous": false,
      "inputs": [
        {
          "indexed": true,
          "internalType": "address",
          "name": "player",
          "type": "address"
        },
        {
          "indexed": false,
          "internalType": "bytes32",
          "name": "commitment",
          "type": "bytes32"
        }
      ],
      "name": "NumberCommitted",
      "type": "event"
    },
    {
      "anonymous": false,
      "inputs": [
        {
          "indexed": true,
          "internalType": "address",
          "name": "player",
          "type": "address"
        },
        {
          "indexed": false,
          "internalType": "uint256",
          "name": "number",
          "type": "uint256"
        }
      ],
      "name": "NumberRevealed",
      "type": "event"
    },
    {
      "anonymous": false,
      "inputs": [
        {
          "indexed": true,
          "internalType": "address",
          "name": "player",
          "type": "address"
        },
        {
          "indexed": true,
          "internalType": "uint256",
          "name": "playerId",
          "type": "uint256"
        }
      ],
      "name": "PlayerRegistered",
      "type": "event"
    },
    {
      "inputs": [],
      "name": "advanceToReveal",
      "outputs": [],
      "stateMutability": "nonpayable",
      "type": "function"
    },
    {
      "inputs": [],
      "name": "advanceToSubmission",
      "outputs": [],
      "stateMutability": "nonpayable",
      "type": "function"
    },
    {
      "inputs": [],
      "name": "cancelGame",
      "outputs": [],
      "stateMutability": "nonpayable",
      "type": "function"
    },
    {
      "inputs": [
        {
          "internalType": "bytes32",
          "name": "commitment",
          "type": "bytes32"
        }
      ],
      "name": "commitNumber",
      "outputs": [],
      "stateMutability": "nonpayable",
      "type": "function"
    },
    {
      "inputs": [],
      "name": "currentPhase",
      "outputs": [
        {
          "internalType": "enum TwoThirdsGame.GamePhase",
          "name": "",
          "type": "uint8"
        }
      ],
      "stateMutability": "view",
      "type": "function"
    },
    {
      "inputs": [],
      "name": "entryFee",
      "outputs": [
        {
          "internalType": "uint256",
          "name": "",
          "type": "uint256"
        }
      ],
      "stateMutability": "view",
      "type": "function"
    },
    {
      "inputs": [],
      "name": "finishGame",
      "outputs": [],
      "stateMutability": "nonpayable",
      "type": "function"
    },
    {
      "inputs": [],
      "name": "gameAdmin",
      "outputs": [
        {
          "internalType": "address",
          "name": "",
          "type": "address"
        }
      ],
      "stateMutability": "view",
      "type": "function"
    },
    {
      "inputs": [],
      "name": "getPlayerCount",
      "outputs": [
        {
          "internalType": "uint256",
          "name": "",
          "type": "uint256"
        }
      ],
      "stateMutability": "view",
      "type": "function"
    },
    {
      "inputs": [],
      "name": "getTargetNumber",
      "outputs": [
        {
          "internalType": "uint256",
          "name": "",
          "type": "uint256"
        }
      ],
      "stateMutability": "view",
      "type": "function"
    },
    {
      "inputs": [
        {
          "internalType": "address",
          "name": "player",
          "type": "address"
        }
      ],
      "name": "hasPlayerSubmitted",
      "outputs": [
        {
          "internalType": "bool",
          "name": "",
          "type": "bool"
        }
      ],
      "stateMutability": "view",
      "type": "function"
    },
    {
      "inputs": [],
      "name": "minPlayers",
      "outputs": [
        {
          "internalType": "uint8",
          "name": "",
          "type": "uint8"
        }
      ],
      "stateMutability": "view",
      "type": "function"
    },
    {
      "inputs": [
        {
          "internalType": "address",
          "name": "",
          "type": "address"
        }
      ],
      "name": "playerIds",
      "outputs": [
        {
          "internalType": "uint256",
          "name": "",
          "type": "uint256"
        }
      ],
      "stateMutability": "view",
      "type": "function"
    },
    {
      "inputs": [
        {
          "internalType": "uint256",
          "name": "",
          "type": "uint256"
        }
      ],
      "name": "players",
      "outputs": [
        {
          "internalType": "address",
          "name": "playerAddress",
          "type": "address"
        },
        {
          "internalType": "bool",
          "name": "hasSubmitted",
          "type": "bool"
        },
        {
          "internalType": "bool",
          "name": "hasPaid",
          "type": "bool"
        }
      ],
      "stateMutability": "view",
      "type": "function"
    },
    {
      "inputs": [],
      "name": "register",
      "outputs": [],
      "stateMutability": "payable",
      "type": "function"
    },
    {
      "inputs": [],
      "name": "registrationDeadline",
      "outputs": [
        {
          "internalType": "uint256",
          "name": "",
          "type": "uint256"
        }
      ],
      "stateMutability": "view",
      "type": "function"
    },
    {
      "inputs": [
        {
          "internalType": "uint256",
          "name": "number",
          "type": "uint256"
        },
        {
          "internalType": "string",
          "name": "secret",
          "type": "string"
        }
      ],
      "name": "revealNumber",
      "outputs": [],
      "stateMutability": "nonpayable",
      "type": "function"
    },
    {
      "inputs": [],
      "name": "serviceFeePercent",
      "outputs": [
        {
          "internalType": "uint8",
          "name": "",
          "type": "uint8"
        }
      ],
      "stateMutability": "view",
      "type": "function"
    },
    {
      "inputs": [],
      "name": "submissionDeadline",
      "outputs": [
        {
          "internalType": "uint256",
          "name": "",
          "type": "uint256"
        }
      ],
      "stateMutability": "view",
      "type": "function"
    },
    {
      "inputs": [],
      "name": "totalPrizePool",
      "outputs": [
        {
          "internalType": "uint256",
          "name": "",
          "type": "uint256"
        }
      ],
      "stateMutability": "view",
      "type": "function"
    },
    {
      "inputs": [],
      "name": "winner",
      "outputs": [
        {
          "internalType": "address",
          "name": "",
          "type": "address"
        }
      ],
      "stateMutability": "view",
      "type": "function"
    },
    {
      "inputs": [],
      "name": "winningNumber",
      "outputs": [
        {
          "internalType": "uint256",
          "name": "",
          "type": "uint256"
        }
      ],
      "stateMutability": "view",
      "type": "function"
    },
    {
      "inputs": [],
      "name": "withdrawEntryFee",
      "outputs": [],
      "stateMutability": "nonpayable",
      "type": "function"
    }
  ],
  "bytecode": "0x60806040523480156200001157600080fd5b5060405162001d6338038062001d6383398101604081905262000034916200017d565b6001600055600360ff86161015620000935760405162461bcd60e51b815260206004820152601a60248201527f4d696e696d756d203320706c617965727320726571756972656400000000000060448201526064015b60405180910390fd5b60148360ff161115620000e95760405162461bcd60e51b815260206004820152601460248201527f536572766963652066656520746f6f206869676800000000000000000000000060448201526064016200008a565b6001805460ff808816600160a01b026001600160a81b03199092166001600160a01b038a16179190911790915560028590556003805491851660ff199092169190911790556200013a8242620001f0565b60048190556200014c908290620001f0565b60055550506006805460ff19169055506200021892505050565b805160ff811681146200017857600080fd5b919050565b60008060008060008060c087890312156200019757600080fd5b86516001600160a01b0381168114620001af57600080fd5b9550620001bf6020880162000166565b945060408701519350620001d66060880162000166565b92506080870151915060a087015190509295509295509295565b808201808211156200021257634e487b7160e01b600052601160045260246000fd5b92915050565b611b3b80620002286000396000f3fe6080604052600436106101405760003560e01c80638755d214116100b6578063d36ec0611161006f578063d36ec06114610338578063d84c1ac914610365578063dfbf53ae1461037a578063e1841c701461039a578063f71d96cb146103ba578063f9c551151461042d57600080fd5b80638755d2141461029a578063995bc51e146102ca5780639fecb69f146102e4578063a576e9ae146102f9578063b22e1d771461030e578063c2e522061461032357600080fd5b80631f31eb1a116101085780631f31eb1a146101ce5780632770c895146101e35780633987644c14610216578063398ab9a7146102365780634664611e1461024c57806376adcba51461026257600080fd5b8063055ad42e14610145578063072ea61c14610175578063111843921461019957806312bb3730146101af5780631aa3a008146101c6575b600080fd5b34801561015157600080fd5b5060065461015f9060ff1681565b60405161016c91906118f5565b60405180910390f35b34801561018157600080fd5b5061018b60025481565b60405190815260200161016c565b3480156101a557600080fd5b5061018b60045481565b3480156101bb57600080fd5b506101c4610443565b005b6101c4610586565b3480156101da57600080fd5b506101c4610842565b3480156101ef57600080fd5b5060015461020490600160a01b900460ff1681565b60405160ff909116815260200161016c565b34801561022257600080fd5b506101c461023136600461191d565b610961565b34801561024257600080fd5b5061018b60085481565b34801561025857600080fd5b5061018b600a5481565b34801561026e57600080fd5b50600154610282906001600160a01b031681565b6040516001600160a01b03909116815260200161016c565b3480156102a657600080fd5b506102ba6102b5366004611936565b610b30565b604051901515815260200161016c565b3480156102d657600080fd5b506003546102049060ff1681565b3480156102f057600080fd5b506101c4610b78565b34801561030557600080fd5b506101c4610cce565b34801561031a57600080fd5b5061018b610e33565b34801561032f57600080fd5b5060075461018b565b34801561034457600080fd5b5061018b610353366004611936565b600e6020526000908152604090205481565b34801561037157600080fd5b506101c4610e97565b34801561038657600080fd5b50600954610282906001600160a01b031681565b3480156103a657600080fd5b506101c46103b5366004611966565b611033565b3480156103c657600080fd5b506104066103d536600461191d565b600d602052600090815260409020546001600160a01b0381169060ff600160a01b8204811691600160a81b90041683565b604080516001600160a01b039094168452911515602084015215159082015260600161016c565b34801561043957600080fd5b5061018b60055481565b61044b6113a2565b600460065460ff166004811115610464576104646118df565b146104ab5760405162461bcd60e51b815260206004820152601260248201527111d85b59481b9bdd0818d85b98d95b1b195960721b60448201526064015b60405180910390fd5b336000908152600e6020526040902054806104d85760405162461bcd60e51b81526004016104a2906119e2565b6000818152600d6020526040902054600160a81b900460ff166105315760405162461bcd60e51b815260206004820152601160248201527020b63932b0b23c903bb4ba34323930bbb760791b60448201526064016104a2565b6000818152600d6020526040808220805460ff60a81b191690556002549051339282156108fc02929190818181858888f19350505050158015610578573d6000803e3d6000fd5b50506105846001600055565b565b61058e6113a2565b600060065460ff1660048111156105a7576105a76118df565b146105f45760405162461bcd60e51b815260206004820152601860248201527f526567697374726174696f6e206973206e6f74206f70656e000000000000000060448201526064016104a2565b60045442106106455760405162461bcd60e51b815260206004820152601960248201527f526567697374726174696f6e20706572696f6420656e6465640000000000000060448201526064016104a2565b336000908152600e6020526040902054156106975760405162461bcd60e51b8152602060048201526012602482015271105b1c9958591e481c9959da5cdd195c995960721b60448201526064016104a2565b6002543410156106e25760405162461bcd60e51b8152602060048201526016602482015275496e73756666696369656e7420656e7472792066656560501b60448201526064016104a2565b6000600254346106f29190611a20565b9050801561072957604051339082156108fc029083906000818181858888f19350505050158015610727573d6000803e3d6000fd5b505b6007805490600061073983611a39565b90915550506007546040805160608101825233808252600060208084018281526001858701908152878452600d835286842095518654925191511515600160a81b0260ff60a81b19921515600160a01b026001600160a81b03199094166001600160a01b039290921691909117929092171617909355908152600e90915290812082905560025460088054919290916107d3908490611a52565b9091555050604051819033907f324cb0062138d65997c86cd3012489ceb351d602f2f55c7408306e8040c79f3f90600090a3600154600754600160a01b90910460ff161180159061082657506004544210155b156105785750506006805460ff19166001908117909155600055565b600060065460ff16600481111561085b5761085b6118df565b146108a45760405162461bcd60e51b81526020600482015260196024820152784e6f7420696e20726567697374726174696f6e20706861736560381b60448201526064016104a2565b600154600754600160a01b90910460ff1611156108f85760405162461bcd60e51b81526020600482015260126024820152714e6f7420656e6f75676820706c617965727360701b60448201526064016104a2565b6001546001600160a01b031633146109525760405162461bcd60e51b815260206004820152601d60248201527f4f6e6c792061646d696e2063616e20616476616e63652070686173657300000060448201526064016104a2565b6006805460ff19166001179055565b600160065460ff16600481111561097a5761097a6118df565b146109c05760405162461bcd60e51b815260206004820152601660248201527529bab136b4b9b9b4b7b71034b9903737ba1037b832b760511b60448201526064016104a2565b6005544210610a115760405162461bcd60e51b815260206004820152601760248201527f5375626d697373696f6e20706572696f6420656e64656400000000000000000060448201526064016104a2565b336000908152600e602052604090205480610a3e5760405162461bcd60e51b81526004016104a2906119e2565b6000818152600d6020526040902054600160a01b900460ff1615610a985760405162461bcd60e51b8152602060048201526011602482015270105b1c9958591e481cdd589b5a5d1d1959607a1b60448201526064016104a2565b6040805160608101825283815260006020808301828152838501838152868452600f83528584209451855590516001850155516002909301805460ff191693151593909317909255600d82528290208054600160a01b60ff60a01b19909116179055905183815233917fa00eb044927680476f6db5f507265b04bc545c94532856d48002e6c6760cf408910160405180910390a25050565b6001600160a01b0381166000908152600e6020526040812054808203610b595750600092915050565b6000908152600d6020526040902054600160a01b900460ff1692915050565b600260065460ff166004811115610b9157610b916118df565b14610bd45760405162461bcd60e51b81526020600482015260136024820152724e6f7420696e2072657665616c20706861736560681b60448201526064016104a2565b600554610be49062015180611a52565b4211610c295760405162461bcd60e51b81526020600482015260146024820152735761697420666f7220616c6c2072657665616c7360601b60448201526064016104a2565b600060015b6007548111610c71576000818152600f602052604090206002015460ff1615610c5f5781610c5b81611a39565b9250505b80610c6981611a39565b915050610c2e565b50600154600160a01b900460ff16811015610cc35760405162461bcd60e51b81526020600482015260126024820152714e6f7420656e6f7567682072657665616c7360701b60448201526064016104a2565b610ccb6113cc565b50565b600160065460ff166004811115610ce757610ce76118df565b14610d345760405162461bcd60e51b815260206004820152601760248201527f4e6f7420696e207375626d697373696f6e20706861736500000000000000000060448201526064016104a2565b6001546001600160a01b03163314610d8e5760405162461bcd60e51b815260206004820152601d60248201527f4f6e6c792061646d696e2063616e20616476616e63652070686173657300000060448201526064016104a2565b600060015b6007548111610dd5576000818152600d6020526040902054600160a01b900460ff1615610dc35760019150610dd5565b80610dcd81611a39565b915050610d93565b5080610e235760405162461bcd60e51b815260206004820152601960248201527f4e6f206e756d626572207375626d697373696f6e73207965740000000000000060448201526064016104a2565b506006805460ff19166002179055565b6000600360065460ff166004811115610e4e57610e4e6118df565b14610e905760405162461bcd60e51b815260206004820152601260248201527111d85b59481b9bdd0818dbdb5c1b195d195960721b60448201526064016104a2565b50600c5490565b6001546001600160a01b03163314610ee95760405162461bcd60e51b815260206004820152601560248201527413db9b1e4818591b5a5b8818d85b8818d85b98d95b605a1b60448201526064016104a2565b600060065460ff166004811115610f0257610f026118df565b14610f4b5760405162461bcd60e51b81526020600482015260196024820152784e6f7420696e20726567697374726174696f6e20706861736560381b60448201526064016104a2565b600454421015610f9d5760405162461bcd60e51b815260206004820152601d60248201527f526567697374726174696f6e20706572696f64206e6f7420656e64656400000060448201526064016104a2565b600154600754600160a01b90910460ff1611610ffb5760405162461bcd60e51b815260206004820152601960248201527f456e6f75676820706c617965727320726567697374657265640000000000000060448201526064016104a2565b6006805460ff191660041790556040517f1dc43dc4f1689be1269b3e80407b3401b4cb752c02591cac32e47dfd758af27d90600090a1565b600160065460ff16600481111561104c5761104c6118df565b148061106e5750600260065460ff16600481111561106c5761106c6118df565b145b6110c45760405162461bcd60e51b815260206004820152602160248201527f4e6f7420696e207375626d697373696f6e206f722072657665616c20706861736044820152606560f81b60648201526084016104a2565b60055442101580156110ec5750600160065460ff1660048111156110ea576110ea6118df565b145b156110ff576006805460ff191660021790555b336000908152600e60205260409020548061112c5760405162461bcd60e51b81526004016104a2906119e2565b6000818152600d6020526040902054600160a01b900460ff166111875760405162461bcd60e51b8152602060048201526013602482015272139bc81b9d5b58995c8818dbdb5b5a5d1d1959606a1b60448201526064016104a2565b6000818152600f602052604090206002015460ff16156111dc5760405162461bcd60e51b815260206004820152601060248201526f105b1c9958591e481c995d99585b195960821b60448201526064016104a2565b6103e88411156112265760405162461bcd60e51b815260206004820152601560248201527404e756d626572206d75737420626520302d3130303605c1b60448201526064016104a2565b60008484843360405160200161123f9493929190611a65565b60408051601f1981840301815291815281516020928301206000858152600f90935291205490915081146112b55760405162461bcd60e51b815260206004820152601860248201527f496e76616c6964206e756d626572206f7220736563726574000000000000000060448201526064016104a2565b6000828152600f6020526040812060018082018890556002909101805460ff19169091179055600b80548792906112ed908490611a52565b909155505060405185815233907f843e2c6ff2cd7224358b6b442e6d46c672362b0e129d790993001b54f161f0b99060200160405180910390a26001805b600754811161138b576000818152600d6020526040902054600160a01b900460ff16801561136b57506000818152600f602052604090206002015460ff16155b15611379576000915061138b565b8061138381611a39565b91505061132b565b50801561139a5761139a6113cc565b505050505050565b6002600054036113c557604051633ee5aeb560e01b815260040160405180910390fd5b6002600055565b600260065460ff1660048111156113e5576113e56118df565b146114285760405162461bcd60e51b81526020600482015260136024820152724e6f7420696e2072657665616c20706861736560681b60448201526064016104a2565b600060015b6007548111611470576000818152600f602052604090206002015460ff161561145e578161145a81611a39565b9250505b8061146881611a39565b91505061142d565b50600154600160a01b900460ff168110156114be576006805460ff191660041790556040517f1dc43dc4f1689be1269b3e80407b3401b4cb752c02591cac32e47dfd758af27d90600090a150565b600081600b546114ce9190611ab0565b905060036114dd826002611ac4565b6114e79190611ab0565b600c556103e960015b600754811161157d576000818152600f602052604090206002015460ff161561156b576000818152600f6020526040812060010154600c5490919082111561154657600c5461153f9083611a20565b9050611557565b81600c546115549190611a20565b90505b8381101561156857600a8290559250825b50505b8061157581611a39565b9150506114f0565b5060015b6007548111611623576000818152600f602052604090206002015460ff1680156115bd5750600a546000828152600f6020526040902060010154145b1561161157600a546000908152601060209081526040808320848452600d83529083205481546001810183559184529190922090910180546001600160a01b0319166001600160a01b039092169190911790555b8061161b81611a39565b915050611581565b50600a5460009081526010602090815260408083208054825181850281018501909352808352919290919083018282801561168757602002820191906000526020600020905b81546001600160a01b03168152600190910190602001808311611669575b5050505050905080516001036116dd57806000815181106116aa576116aa611adb565b6020026020010151600960006101000a8154816001600160a01b0302191690836001600160a01b03160217905550611783565b60018151111561178357805160009042446116f9600143611a20565b600c54604080516020810195909552840192909252406060830152608082015260a0016040516020818303038152906040528051906020012060001c61173f9190611af1565b905081818151811061175357611753611adb565b6020026020010151600960006101000a8154816001600160a01b0302191690836001600160a01b03160217905550505b61178b6117f2565b6006805460ff19166003179055600954600a546001600160a01b03909116907fe3b774cfd7ea28729e7829411c6dfb5be69d56f78c5ce78ad8a0a26668aeff1f906117d46118a2565b6040805192835260208301919091520160405180910390a250505050565b60035460085460009160649161180b9160ff1690611ac4565b6118159190611ab0565b90506000816008546118279190611a20565b6009546040519192506001600160a01b03169082156108fc029083906000818181858888f19350505050158015611862573d6000803e3d6000fd5b506001546040516001600160a01b039091169083156108fc029084906000818181858888f1935050505015801561189d573d6000803e3d6000fd5b505050565b60035460085460009182916064916118bf9160ff90911690611ac4565b6118c99190611ab0565b9050806008546118d99190611a20565b91505090565b634e487b7160e01b600052602160045260246000fd5b602081016005831061191757634e487b7160e01b600052602160045260246000fd5b91905290565b60006020828403121561192f57600080fd5b5035919050565b60006020828403121561194857600080fd5b81356001600160a01b038116811461195f57600080fd5b9392505050565b60008060006040848603121561197b57600080fd5b83359250602084013567ffffffffffffffff8082111561199a57600080fd5b818601915086601f8301126119ae57600080fd5b8135818111156119bd57600080fd5b8760208285010111156119cf57600080fd5b6020830194508093505050509250925092565b6020808252600e908201526d139bdd081c9959da5cdd195c995960921b604082015260600190565b634e487b7160e01b600052601160045260246000fd5b81810381811115611a3357611a33611a0a565b92915050565b600060018201611a4b57611a4b611a0a565b5060010190565b80820180821115611a3357611a33611a0a565b8481528284602083013760609190911b6bffffffffffffffffffffffff19166020919092019081019190915260340192915050565b634e487b7160e01b600052601260045260246000fd5b600082611abf57611abf611a9a565b500490565b8082028115828204841417611a3357611a33611a0a565b634e487b7160e01b600052603260045260246000fd5b600082611b0057611b00611a9a565b50069056fea2646970667358221220a12495974542f26a9364f9b2d394ce3015263094bfc5d2567ccc298de73f9f0e64736f6c63430008140033",
  "linkReferences": {},
  "deployedLinkReferences": {}
}